{
  "contractName": "Escrow",
  "abi": [
    {
      "inputs": [
        {
          "internalType": "address",
          "name": "_payer",
          "type": "address"
        },
        {
          "internalType": "address payable",
          "name": "_payee",
          "type": "address"
        },
        {
          "internalType": "uint256",
          "name": "_amount",
          "type": "uint256"
        }
      ],
      "stateMutability": "nonpayable",
      "type": "constructor"
    },
    {
      "inputs": [],
      "name": "amount",
      "outputs": [
        {
          "internalType": "uint256",
          "name": "",
          "type": "uint256"
        }
      ],
      "stateMutability": "view",
      "type": "function",
      "constant": true
    },
    {
      "inputs": [],
      "name": "lawyer",
      "outputs": [
        {
          "internalType": "address",
          "name": "",
          "type": "address"
        }
      ],
      "stateMutability": "view",
      "type": "function",
      "constant": true
    },
    {
      "inputs": [],
      "name": "payee",
      "outputs": [
        {
          "internalType": "address payable",
          "name": "",
          "type": "address"
        }
      ],
      "stateMutability": "view",
      "type": "function",
      "constant": true
    },
    {
      "inputs": [],
      "name": "payer",
      "outputs": [
        {
          "internalType": "address",
          "name": "",
          "type": "address"
        }
      ],
      "stateMutability": "view",
      "type": "function",
      "constant": true
    },
    {
      "inputs": [],
      "name": "deposit",
      "outputs": [],
      "stateMutability": "payable",
      "type": "function",
      "payable": true
    },
    {
      "inputs": [],
      "name": "release",
      "outputs": [],
      "stateMutability": "nonpayable",
      "type": "function"
    },
    {
      "inputs": [],
      "name": "balanceOf",
      "outputs": [
        {
          "internalType": "uint256",
          "name": "",
          "type": "uint256"
        }
      ],
      "stateMutability": "view",
      "type": "function",
      "constant": true
    }
  ],
  "bytecode": "0x608060405234801561001057600080fd5b5060405161046838038061046883398101604081905261002f91610076565b600080546001600160a01b039485166001600160a01b03199182161790915560018054939094169281169290921790925560039190915560028054909116331790556100d0565b60008060006060848603121561008a578283fd5b8351610095816100b8565b60208501519093506100a6816100b8565b80925050604084015190509250925092565b6001600160a01b03811681146100cd57600080fd5b50565b610389806100df6000396000f3fe6080604052600436106100705760003560e01c806386d1a69f1161004e57806386d1a69f146100d7578063aa8c217c146100ee578063ae90b21314610103578063d0e30db01461011857610070565b8063123119cd146100755780633bfb6e31146100a0578063722713f7146100b5575b600080fd5b34801561008157600080fd5b5061008a610120565b6040516100979190610238565b60405180910390f35b3480156100ac57600080fd5b5061008a61012f565b3480156100c157600080fd5b506100ca61013e565b604051610097919061034a565b3480156100e357600080fd5b506100ec610142565b005b3480156100fa57600080fd5b506100ca6101d5565b34801561010f57600080fd5b5061008a6101db565b6100ec6101ea565b6000546001600160a01b031681565b6002546001600160a01b031681565b4790565b600354471461016c5760405162461bcd60e51b8152600401610163906102c4565b60405180910390fd5b6002546001600160a01b031633146101965760405162461bcd60e51b815260040161016390610313565b6001546003546040516001600160a01b039092169181156108fc0291906000818181858888f193505050501580156101d2573d6000803e3d6000fd5b50565b60035481565b6001546001600160a01b031681565b6000546001600160a01b031633146102145760405162461bcd60e51b81526004016101639061028d565b6003544711156102365760405162461bcd60e51b81526004016101639061024c565b565b6001600160a01b0391909116815260200190565b60208082526021908201527f43616e742073656e64206d6f7265207468616e20657363726f7720616d6f756e6040820152601d60fa1b606082015260800190565b60208082526018908201527f53656e646572206d757374206265207468652070617965720000000000000000604082015260600190565b6020808252602f908201527f43616e6e6f742072656c656173652066756e6473206265666f72652066756c6c60408201526e08185b5bdd5b9d081a5cc81cd95b9d608a1b606082015260800190565b6020808252601d908201527f4f6e6c79206c61777965722063616e2072656c656173652066756e6473000000604082015260600190565b9081526020019056fea2646970667358221220c24e3a49947c5f98418b8127d9e8acfea01854ff3483640cabd15f32571e8e9964736f6c63430008000033",
  "immutableReferences": {},
  "source": "// SPDX-License-Identifier: MIT \r\npragma solidity ^0.8.0;\r\n\r\ncontract Escrow {\r\n    address public payer;\r\n    address payable public payee;\r\n    address public lawyer;\r\n    uint public amount;\r\n\r\n    constructor(\r\n        address _payer,\r\n        address payable _payee,\r\n        uint _amount\r\n        ) {    \r\n        payer = _payer;\r\n        payee = _payee;\r\n        amount = _amount;\r\n        lawyer = msg.sender;\r\n    }\r\n\r\n    function deposit() payable public {\r\n        require(msg.sender == payer, 'Sender must be the payer');\r\n        require(address(this).balance <= amount, 'Cant send more than escrow amount');\r\n    }\r\n\r\n    function release() public {\r\n        require(address(this).balance == amount, 'Cannot release funds before full amount is sent');\r\n        require(msg.sender == lawyer, 'Only lawyer can release funds');\r\n        payee.transfer(amount);\r\n    }\r\n\r\n    function balanceOf() view public returns(uint) {\r\n        return address(this).balance;\r\n    }\r\n}",
  "sourcePath": "C:\\Users\\cassi\\Documents\\DApps\\Escrow\\contracts\\Escrow.sol",
  "compiler": {
    "name": "solc",
    "version": "0.8.0+commit.c7dfd78e.Emscripten.clang"
  },
  "schemaVersion": "3.4.16",
  "updatedAt": "2023-11-15T16:24:14.131Z",
  "networkType": "ethereum",
  "devdoc": {
    "kind": "dev",
    "methods": {},
    "version": 1
  },
  "userdoc": {
    "kind": "user",
    "methods": {},
    "version": 1
  }
}